:020000040800F2
:10000000000400200900000800F019F800F048F88A
:1000100000F06AF800F04AF800F066F800F04CF8DA
:1000200000F062F800F04EF800F05EF800F050F8D2
:1000300000F05AF800F052F800F056F8E6E703B581
:10004000334840F01C0032490860324800F4702008
:10005000304908602F4840F480302E4908604FF046
:1000600010002D4908602D4800F0F0002B49086071
:100070002A4840F02000294908604FF400702849C0
:100080000860284800F0704026490860254840F084
:100090004050244908604FF400402349086003BDE4
:1000A00003B54FF000001E49086003BD03B54FF4CF
:1000B00000701B49086003BD03B54FF000001A49EA
:1000C000086003BD03B54FF400401749086003BD45
:1000D00003B54FF000001049086003BD03B54FF0B1
:1000E00010000D49086003BD03B500200021002267
:1000F000401CB0F5A57FFBD30020491CB1F5A57FBE
:10010000F6D300200021521C0F2AF1D303BD00BFFB
:1001100018100240000801400C080140040C014086
:0C0120000C0C0140041001400C100140C8
:0400000508000009E6
:00000001FF
